{
  "contractName": "EdisonNft",
  "abi": [
    {
      "inputs": [
        {
          "internalType": "string",
          "name": "_initBaseURI",
          "type": "string"
        },
        {
          "internalType": "string",
          "name": "_initNotRevealedUri",
          "type": "string"
        }
      ],
      "stateMutability": "nonpayable",
      "type": "constructor"
    },
    {
      "anonymous": false,
      "inputs": [
        {
          "indexed": true,
          "internalType": "address",
          "name": "owner",
          "type": "address"
        },
        {
          "indexed": true,
          "internalType": "address",
          "name": "approved",
          "type": "address"
        },
        {
          "indexed": true,
          "internalType": "uint256",
          "name": "tokenId",
          "type": "uint256"
        }
      ],
      "name": "Approval",
      "type": "event"
    },
    {
      "anonymous": false,
      "inputs": [
        {
          "indexed": true,
          "internalType": "address",
          "name": "owner",
          "type": "address"
        },
        {
          "indexed": true,
          "internalType": "address",
          "name": "operator",
          "type": "address"
        },
        {
          "indexed": false,
          "internalType": "bool",
          "name": "approved",
          "type": "bool"
        }
      ],
      "name": "ApprovalForAll",
      "type": "event"
    },
    {
      "anonymous": false,
      "inputs": [
        {
          "indexed": true,
          "internalType": "address",
          "name": "previousOwner",
          "type": "address"
        },
        {
          "indexed": true,
          "internalType": "address",
          "name": "newOwner",
          "type": "address"
        }
      ],
      "name": "OwnershipTransferred",
      "type": "event"
    },
    {
      "anonymous": false,
      "inputs": [
        {
          "indexed": true,
          "internalType": "address",
          "name": "from",
          "type": "address"
        },
        {
          "indexed": true,
          "internalType": "address",
          "name": "to",
          "type": "address"
        },
        {
          "indexed": true,
          "internalType": "uint256",
          "name": "tokenId",
          "type": "uint256"
        }
      ],
      "name": "Transfer",
      "type": "event"
    },
    {
      "inputs": [
        {
          "internalType": "address",
          "name": "to",
          "type": "address"
        },
        {
          "internalType": "uint256",
          "name": "tokenId",
          "type": "uint256"
        }
      ],
      "name": "approve",
      "outputs": [],
      "stateMutability": "nonpayable",
      "type": "function"
    },
    {
      "inputs": [
        {
          "internalType": "address",
          "name": "owner",
          "type": "address"
        }
      ],
      "name": "balanceOf",
      "outputs": [
        {
          "internalType": "uint256",
          "name": "",
          "type": "uint256"
        }
      ],
      "stateMutability": "view",
      "type": "function"
    },
    {
      "inputs": [],
      "name": "baseExtension",
      "outputs": [
        {
          "internalType": "string",
          "name": "",
          "type": "string"
        }
      ],
      "stateMutability": "view",
      "type": "function"
    },
    {
      "inputs": [],
      "name": "cost",
      "outputs": [
        {
          "internalType": "uint256",
          "name": "",
          "type": "uint256"
        }
      ],
      "stateMutability": "view",
      "type": "function"
    },
    {
      "inputs": [
        {
          "internalType": "uint256",
          "name": "tokenId",
          "type": "uint256"
        }
      ],
      "name": "getApproved",
      "outputs": [
        {
          "internalType": "address",
          "name": "",
          "type": "address"
        }
      ],
      "stateMutability": "view",
      "type": "function"
    },
    {
      "inputs": [
        {
          "internalType": "address",
          "name": "owner",
          "type": "address"
        },
        {
          "internalType": "address",
          "name": "operator",
          "type": "address"
        }
      ],
      "name": "isApprovedForAll",
      "outputs": [
        {
          "internalType": "bool",
          "name": "",
          "type": "bool"
        }
      ],
      "stateMutability": "view",
      "type": "function"
    },
    {
      "inputs": [],
      "name": "maxMintAmount",
      "outputs": [
        {
          "internalType": "uint256",
          "name": "",
          "type": "uint256"
        }
      ],
      "stateMutability": "view",
      "type": "function"
    },
    {
      "inputs": [],
      "name": "maxSupply",
      "outputs": [
        {
          "internalType": "uint256",
          "name": "",
          "type": "uint256"
        }
      ],
      "stateMutability": "view",
      "type": "function"
    },
    {
      "inputs": [],
      "name": "name",
      "outputs": [
        {
          "internalType": "string",
          "name": "",
          "type": "string"
        }
      ],
      "stateMutability": "view",
      "type": "function"
    },
    {
      "inputs": [],
      "name": "notRevealedUri",
      "outputs": [
        {
          "internalType": "string",
          "name": "",
          "type": "string"
        }
      ],
      "stateMutability": "view",
      "type": "function"
    },
    {
      "inputs": [],
      "name": "owner",
      "outputs": [
        {
          "internalType": "address",
          "name": "",
          "type": "address"
        }
      ],
      "stateMutability": "view",
      "type": "function"
    },
    {
      "inputs": [
        {
          "internalType": "uint256",
          "name": "tokenId",
          "type": "uint256"
        }
      ],
      "name": "ownerOf",
      "outputs": [
        {
          "internalType": "address",
          "name": "",
          "type": "address"
        }
      ],
      "stateMutability": "view",
      "type": "function"
    },
    {
      "inputs": [],
      "name": "paused",
      "outputs": [
        {
          "internalType": "bool",
          "name": "",
          "type": "bool"
        }
      ],
      "stateMutability": "view",
      "type": "function"
    },
    {
      "inputs": [],
      "name": "renounceOwnership",
      "outputs": [],
      "stateMutability": "nonpayable",
      "type": "function"
    },
    {
      "inputs": [],
      "name": "reservedForTeam",
      "outputs": [
        {
          "internalType": "uint256",
          "name": "",
          "type": "uint256"
        }
      ],
      "stateMutability": "view",
      "type": "function"
    },
    {
      "inputs": [],
      "name": "revealed",
      "outputs": [
        {
          "internalType": "bool",
          "name": "",
          "type": "bool"
        }
      ],
      "stateMutability": "view",
      "type": "function"
    },
    {
      "inputs": [
        {
          "internalType": "address",
          "name": "from",
          "type": "address"
        },
        {
          "internalType": "address",
          "name": "to",
          "type": "address"
        },
        {
          "internalType": "uint256",
          "name": "tokenId",
          "type": "uint256"
        }
      ],
      "name": "safeTransferFrom",
      "outputs": [],
      "stateMutability": "nonpayable",
      "type": "function"
    },
    {
      "inputs": [
        {
          "internalType": "address",
          "name": "from",
          "type": "address"
        },
        {
          "internalType": "address",
          "name": "to",
          "type": "address"
        },
        {
          "internalType": "uint256",
          "name": "tokenId",
          "type": "uint256"
        },
        {
          "internalType": "bytes",
          "name": "_data",
          "type": "bytes"
        }
      ],
      "name": "safeTransferFrom",
      "outputs": [],
      "stateMutability": "nonpayable",
      "type": "function"
    },
    {
      "inputs": [
        {
          "internalType": "address",
          "name": "operator",
          "type": "address"
        },
        {
          "internalType": "bool",
          "name": "approved",
          "type": "bool"
        }
      ],
      "name": "setApprovalForAll",
      "outputs": [],
      "stateMutability": "nonpayable",
      "type": "function"
    },
    {
      "inputs": [
        {
          "internalType": "bytes4",
          "name": "interfaceId",
          "type": "bytes4"
        }
      ],
      "name": "supportsInterface",
      "outputs": [
        {
          "internalType": "bool",
          "name": "",
          "type": "bool"
        }
      ],
      "stateMutability": "view",
      "type": "function"
    },
    {
      "inputs": [],
      "name": "symbol",
      "outputs": [
        {
          "internalType": "string",
          "name": "",
          "type": "string"
        }
      ],
      "stateMutability": "view",
      "type": "function"
    },
    {
      "inputs": [
        {
          "internalType": "uint256",
          "name": "index",
          "type": "uint256"
        }
      ],
      "name": "tokenByIndex",
      "outputs": [
        {
          "internalType": "uint256",
          "name": "",
          "type": "uint256"
        }
      ],
      "stateMutability": "view",
      "type": "function"
    },
    {
      "inputs": [
        {
          "internalType": "address",
          "name": "owner",
          "type": "address"
        },
        {
          "internalType": "uint256",
          "name": "index",
          "type": "uint256"
        }
      ],
      "name": "tokenOfOwnerByIndex",
      "outputs": [
        {
          "internalType": "uint256",
          "name": "",
          "type": "uint256"
        }
      ],
      "stateMutability": "view",
      "type": "function"
    },
    {
      "inputs": [],
      "name": "totalSupply",
      "outputs": [
        {
          "internalType": "uint256",
          "name": "",
          "type": "uint256"
        }
      ],
      "stateMutability": "view",
      "type": "function"
    },
    {
      "inputs": [
        {
          "internalType": "address",
          "name": "from",
          "type": "address"
        },
        {
          "internalType": "address",
          "name": "to",
          "type": "address"
        },
        {
          "internalType": "uint256",
          "name": "tokenId",
          "type": "uint256"
        }
      ],
      "name": "transferFrom",
      "outputs": [],
      "stateMutability": "nonpayable",
      "type": "function"
    },
    {
      "inputs": [
        {
          "internalType": "address",
          "name": "newOwner",
          "type": "address"
        }
      ],
      "name": "transferOwnership",
      "outputs": [],
      "stateMutability": "nonpayable",
      "type": "function"
    },
    {
      "inputs": [],
      "name": "whitelistCost",
      "outputs": [
        {
          "internalType": "uint256",
          "name": "",
          "type": "uint256"
        }
      ],
      "stateMutability": "view",
      "type": "function"
    },
    {
      "inputs": [],
      "name": "whitelistMintAmount",
      "outputs": [
        {
          "internalType": "uint256",
          "name": "",
          "type": "uint256"
        }
      ],
      "stateMutability": "view",
      "type": "function"
    },
    {
      "inputs": [],
      "name": "whitelistReserved",
      "outputs": [
        {
          "internalType": "uint256",
          "name": "",
          "type": "uint256"
        }
      ],
      "stateMutability": "view",
      "type": "function"
    },
    {
      "inputs": [
        {
          "internalType": "uint256",
          "name": "_mintAmount",
          "type": "uint256"
        },
        {
          "internalType": "string",
          "name": "_signature",
          "type": "string"
        }
      ],
      "name": "presaleMint",
      "outputs": [],
      "stateMutability": "payable",
      "type": "function"
    },
    {
      "inputs": [
        {
          "internalType": "uint256",
          "name": "_mintAmount",
          "type": "uint256"
        }
      ],
      "name": "mint",
      "outputs": [],
      "stateMutability": "payable",
      "type": "function"
    },
    {
      "inputs": [
        {
          "internalType": "address",
          "name": "_owner",
          "type": "address"
        }
      ],
      "name": "walletOfOwner",
      "outputs": [
        {
          "internalType": "uint256[]",
          "name": "",
          "type": "uint256[]"
        }
      ],
      "stateMutability": "view",
      "type": "function"
    },
    {
      "inputs": [
        {
          "internalType": "uint256",
          "name": "tokenId",
          "type": "uint256"
        }
      ],
      "name": "tokenURI",
      "outputs": [
        {
          "internalType": "string",
          "name": "",
          "type": "string"
        }
      ],
      "stateMutability": "view",
      "type": "function"
    },
    {
      "inputs": [],
      "name": "reveal",
      "outputs": [],
      "stateMutability": "nonpayable",
      "type": "function"
    },
    {
      "inputs": [
        {
          "internalType": "uint256",
          "name": "_reserved",
          "type": "uint256"
        }
      ],
      "name": "setReserved",
      "outputs": [],
      "stateMutability": "nonpayable",
      "type": "function"
    },
    {
      "inputs": [
        {
          "internalType": "uint256",
          "name": "_newCost",
          "type": "uint256"
        }
      ],
      "name": "setCost",
      "outputs": [],
      "stateMutability": "nonpayable",
      "type": "function"
    },
    {
      "inputs": [
        {
          "internalType": "uint256",
          "name": "_newCost",
          "type": "uint256"
        }
      ],
      "name": "setWhitelistCost",
      "outputs": [],
      "stateMutability": "nonpayable",
      "type": "function"
    },
    {
      "inputs": [
        {
          "internalType": "uint256",
          "name": "_newmaxMintAmount",
          "type": "uint256"
        }
      ],
      "name": "setmaxMintAmount",
      "outputs": [],
      "stateMutability": "nonpayable",
      "type": "function"
    },
    {
      "inputs": [
        {
          "internalType": "string",
          "name": "_notRevealedURI",
          "type": "string"
        }
      ],
      "name": "setNotRevealedURI",
      "outputs": [],
      "stateMutability": "nonpayable",
      "type": "function"
    },
    {
      "inputs": [
        {
          "internalType": "string",
          "name": "_newBaseURI",
          "type": "string"
        }
      ],
      "name": "setBaseURI",
      "outputs": [],
      "stateMutability": "nonpayable",
      "type": "function"
    },
    {
      "inputs": [
        {
          "internalType": "string",
          "name": "_newBaseExtension",
          "type": "string"
        }
      ],
      "name": "setBaseExtension",
      "outputs": [],
      "stateMutability": "nonpayable",
      "type": "function"
    },
    {
      "inputs": [
        {
          "internalType": "bool",
          "name": "_state",
          "type": "bool"
        }
      ],
      "name": "pause",
      "outputs": [],
      "stateMutability": "nonpayable",
      "type": "function"
    },
    {
      "inputs": [
        {
          "internalType": "bool",
          "name": "_state",
          "type": "bool"
        }
      ],
      "name": "whitelistSale",
      "outputs": [],
      "stateMutability": "nonpayable",
      "type": "function"
    },
    {
      "inputs": [
        {
          "internalType": "string",
          "name": "_signature",
          "type": "string"
        }
      ],
      "name": "setSignature",
      "outputs": [],
      "stateMutability": "nonpayable",
      "type": "function"
    },
    {
      "inputs": [
        {
          "internalType": "uint256",
          "name": "_count",
          "type": "uint256"
        }
      ],
      "name": "setWhitelistReserved",
      "outputs": [],
      "stateMutability": "nonpayable",
      "type": "function"
    },
    {
      "inputs": [],
      "name": "withdraw",
      "outputs": [],
      "stateMutability": "payable",
      "type": "function"
    },
    {
      "inputs": [],
      "name": "getBalance",
      "outputs": [
        {
          "internalType": "uint256",
          "name": "",
          "type": "uint256"
        }
      ],
      "stateMutability": "view",
      "type": "function"
    },
    {
      "inputs": [],
      "name": "isWhitelisted",
      "outputs": [
        {
          "internalType": "bool",
          "name": "",
          "type": "bool"
        }
      ],
      "stateMutability": "view",
      "type": "function"
    }
  ],
  "bytecode": "0x60806040526040518060400160405280600581526020017f2e6a736f6e000000000000000000000000000000000000000000000000000000815250600c90805190602001906200005192919062000593565b506551dac207a000600d5561044a600e556004600f55600a6010556000601260006101000a81548160ff0219169083151502179055506000601260016101000a81548160ff02191690831515021790555060036013556103e86014556551dac207a0006015556001601660006101000a81548160ff0219169083151502179055506040518060400160405280601281526020017f427920456469736f6e204e465420446179320000000000000000000000000000815250601890805190602001906200011f92919062000593565b506040518060400160405280600681526020017f73796d626f6c0000000000000000000000000000000000000000000000000000815250601990805190602001906200016d92919062000593565b503480156200017b57600080fd5b506040516200587b3803806200587b8339818101604052810190620001a19190620006b5565b60188054620001b0906200083a565b80601f0160208091040260200160405190810160405280929190818152602001828054620001de906200083a565b80156200022f5780601f1062000203576101008083540402835291602001916200022f565b820191906000526020600020905b8154815290600101906020018083116200021157829003601f168201915b50505050506019805462000243906200083a565b80601f016020809104026020016040519081016040528092919081815260200182805462000271906200083a565b8015620002c25780601f106200029657610100808354040283529160200191620002c2565b820191906000526020600020905b815481529060010190602001808311620002a457829003601f168201915b50505050508160009080519060200190620002df92919062000593565b508060019080519060200190620002f892919062000593565b5050506200031b6200030f6200034560201b60201c565b6200034d60201b60201c565b6200032c826200041360201b60201c565b6200033d81620004be60201b60201c565b5050620008ce565b600033905090565b6000600a60009054906101000a900473ffffffffffffffffffffffffffffffffffffffff16905081600a60006101000a81548173ffffffffffffffffffffffffffffffffffffffff021916908373ffffffffffffffffffffffffffffffffffffffff1602179055508173ffffffffffffffffffffffffffffffffffffffff168173ffffffffffffffffffffffffffffffffffffffff167f8be0079c531659141344cd1fd0a4f28419497f9722a3daafe3b4186f6b6457e060405160405180910390a35050565b620004236200034560201b60201c565b73ffffffffffffffffffffffffffffffffffffffff16620004496200056960201b60201c565b73ffffffffffffffffffffffffffffffffffffffff1614620004a2576040517f08c379a000000000000000000000000000000000000000000000000000000000815260040162000499906200076a565b60405180910390fd5b80600b9080519060200190620004ba92919062000593565b5050565b620004ce6200034560201b60201c565b73ffffffffffffffffffffffffffffffffffffffff16620004f46200056960201b60201c565b73ffffffffffffffffffffffffffffffffffffffff16146200054d576040517f08c379a000000000000000000000000000000000000000000000000000000000815260040162000544906200076a565b60405180910390fd5b80601790805190602001906200056592919062000593565b5050565b6000600a60009054906101000a900473ffffffffffffffffffffffffffffffffffffffff16905090565b828054620005a1906200083a565b90600052602060002090601f016020900481019282620005c5576000855562000611565b82601f10620005e057805160ff191683800117855562000611565b8280016001018555821562000611579182015b8281111562000610578251825591602001919060010190620005f3565b5b50905062000620919062000624565b5090565b5b808211156200063f57600081600090555060010162000625565b5090565b60006200065a6200065484620007c0565b6200078c565b9050828152602081018484840111156200067357600080fd5b6200068084828562000804565b509392505050565b600082601f8301126200069a57600080fd5b8151620006ac84826020860162000643565b91505092915050565b60008060408385031215620006c957600080fd5b600083015167ffffffffffffffff811115620006e457600080fd5b620006f28582860162000688565b925050602083015167ffffffffffffffff8111156200071057600080fd5b6200071e8582860162000688565b9150509250929050565b600062000737602083620007f3565b91507f4f776e61626c653a2063616c6c6572206973206e6f7420746865206f776e65726000830152602082019050919050565b60006020820190508181036000830152620007858162000728565b9050919050565b6000604051905081810181811067ffffffffffffffff82111715620007b657620007b56200089f565b5b8060405250919050565b600067ffffffffffffffff821115620007de57620007dd6200089f565b5b601f19601f8301169050602081019050919050565b600082825260208201905092915050565b60005b838110156200082457808201518184015260208101905062000807565b8381111562000834576000848401525b50505050565b600060028204905060018216806200085357607f821691505b602082108114156200086a576200086962000870565b5b50919050565b7f4e487b7100000000000000000000000000000000000000000000000000000000600052602260045260246000fd5b7f4e487b7100000000000000000000000000000000000000000000000000000000600052604160045260246000fd5b614f9d80620008de6000396000f3fe6080604052600436106102935760003560e01c80636352211e1161015a578063b35e3b2e116100c1578063d5abeb011161007a578063d5abeb01146109b3578063da3ef23f146109de578063e7b99ec714610a07578063e985e9c514610a32578063f2c4ce1e14610a6f578063f2fde38b14610a9857610293565b8063b35e3b2e146108a5578063b88d4fde146108ce578063c6682862146108f7578063c87b56dd14610922578063cfb89aba1461095f578063d49479eb1461098a57610293565b8063930079a211610113578063930079a2146107d757806395d89b4114610802578063a0712d681461082d578063a22cb46514610849578063a3d078a614610872578063a475b5dd1461088e57610293565b80636352211e146106c757806370a0823114610704578063715018a6146107415780637f00c7a61461075857806388039d8f146107815780638da5cb5b146107ac57610293565b806329d80c84116101fe57806344a0d68a116101b757806344a0d68a146105b75780634f6ccce7146105e0578063518302271461061d57806355f804b3146106485780635c975abb14610671578063611b40951461069c57610293565b806329d80c84146104b85780632d6e71b6146104e15780632f745c591461050a5780633ccfd60b1461054757806342842e0e14610551578063438b63001461057a57610293565b806312065fe01161025057806312065fe0146103ba57806313faede6146103e557806318160ddd14610410578063239c70ae1461043b57806323b872dd146104665780632782fb221461048f57610293565b806301ffc9a71461029857806302329a29146102d557806306fdde03146102fe578063081812fc14610329578063081c8c4414610366578063095ea7b314610391575b600080fd5b3480156102a457600080fd5b506102bf60048036038101906102ba9190613b7b565b610ac1565b6040516102cc919061479e565b60405180910390f35b3480156102e157600080fd5b506102fc60048036038101906102f79190613b52565b610b3b565b005b34801561030a57600080fd5b50610313610bd4565b60405161032091906147b9565b60405180910390f35b34801561033557600080fd5b50610350600480360381019061034b9190613be5565b610c66565b60405161035d9190614761565b60405180910390f35b34801561037257600080fd5b5061037b610ceb565b60405161038891906147b9565b60405180910390f35b34801561039d57600080fd5b506103b860048036038101906103b39190613b16565b610d79565b005b3480156103c657600080fd5b506103cf610e91565b6040516103dc9190614a9b565b60405180910390f35b3480156103f157600080fd5b506103fa610f15565b6040516104079190614a9b565b60405180910390f35b34801561041c57600080fd5b50610425610f1b565b6040516104329190614a9b565b60405180910390f35b34801561044757600080fd5b50610450610f28565b60405161045d9190614a9b565b60405180910390f35b34801561047257600080fd5b5061048d60048036038101906104889190613a10565b610f2e565b005b34801561049b57600080fd5b506104b660048036038101906104b19190613ba4565b610f8e565b005b3480156104c457600080fd5b506104df60048036038101906104da9190613b52565b611024565b005b3480156104ed57600080fd5b5061050860048036038101906105039190613be5565b6110cc565b005b34801561051657600080fd5b50610531600480360381019061052c9190613b16565b611152565b60405161053e9190614a9b565b60405180910390f35b61054f6111f7565b005b34801561055d57600080fd5b5061057860048036038101906105739190613a10565b6112f3565b005b34801561058657600080fd5b506105a1600480360381019061059c91906139ab565b611313565b6040516105ae919061477c565b60405180910390f35b3480156105c357600080fd5b506105de60048036038101906105d99190613be5565b61140d565b005b3480156105ec57600080fd5b5061060760048036038101906106029190613be5565b611493565b6040516106149190614a9b565b60405180910390f35b34801561062957600080fd5b5061063261152a565b60405161063f919061479e565b60405180910390f35b34801561065457600080fd5b5061066f600480360381019061066a9190613ba4565b61153d565b005b34801561067d57600080fd5b506106866115d3565b604051610693919061479e565b60405180910390f35b3480156106a857600080fd5b506106b16115e6565b6040516106be919061479e565b60405180910390f35b3480156106d357600080fd5b506106ee60048036038101906106e99190613be5565b6115fd565b6040516106fb9190614761565b60405180910390f35b34801561071057600080fd5b5061072b600480360381019061072691906139ab565b6116af565b6040516107389190614a9b565b60405180910390f35b34801561074d57600080fd5b50610756611767565b005b34801561076457600080fd5b5061077f600480360381019061077a9190613be5565b6117ef565b005b34801561078d57600080fd5b50610796611875565b6040516107a39190614a9b565b60405180910390f35b3480156107b857600080fd5b506107c161187b565b6040516107ce9190614761565b60405180910390f35b3480156107e357600080fd5b506107ec6118a5565b6040516107f99190614a9b565b60405180910390f35b34801561080e57600080fd5b506108176118ab565b60405161082491906147b9565b60405180910390f35b61084760048036038101906108429190613be5565b61193d565b005b34801561085557600080fd5b50610870600480360381019061086b9190613ada565b611bd5565b005b61088c60048036038101906108879190613c0e565b611d56565b005b34801561089a57600080fd5b506108a36120ca565b005b3480156108b157600080fd5b506108cc60048036038101906108c79190613be5565b612163565b005b3480156108da57600080fd5b506108f560048036038101906108f09190613a5f565b61220f565b005b34801561090357600080fd5b5061090c612271565b60405161091991906147b9565b60405180910390f35b34801561092e57600080fd5b5061094960048036038101906109449190613be5565b6122ff565b60405161095691906147b9565b60405180910390f35b34801561096b57600080fd5b50610974612458565b6040516109819190614a9b565b60405180910390f35b34801561099657600080fd5b506109b160048036038101906109ac9190613be5565b61245e565b005b3480156109bf57600080fd5b506109c86124e4565b6040516109d59190614a9b565b60405180910390f35b3480156109ea57600080fd5b50610a056004803603810190610a009190613ba4565b6124ea565b005b348015610a1357600080fd5b50610a1c612580565b604051610a299190614a9b565b60405180910390f35b348015610a3e57600080fd5b50610a596004803603810190610a5491906139d4565b612586565b604051610a66919061479e565b60405180910390f35b348015610a7b57600080fd5b50610a966004803603810190610a919190613ba4565b61261a565b005b348015610aa457600080fd5b50610abf6004803603810190610aba91906139ab565b6126b0565b005b60007f780e9d63000000000000000000000000000000000000000000000000000000007bffffffffffffffffffffffffffffffffffffffffffffffffffffffff1916827bffffffffffffffffffffffffffffffffffffffffffffffffffffffff19161480610b345750610b33826127a8565b5b9050919050565b610b4361288a565b73ffffffffffffffffffffffffffffffffffffffff16610b6161187b565b73ffffffffffffffffffffffffffffffffffffffff1614610bb7576040517f08c379a0000000000000000000000000000000000000000000000000000000008152600401610bae9061497b565b60405180910390fd5b80601260006101000a81548160ff02191690831515021790555050565b606060008054610be390614d92565b80601f0160208091040260200160405190810160405280929190818152602001828054610c0f90614d92565b8015610c5c5780601f10610c3157610100808354040283529160200191610c5c565b820191906000526020600020905b815481529060010190602001808311610c3f57829003601f168201915b5050505050905090565b6000610c7182612892565b610cb0576040517f08c379a0000000000000000000000000000000000000000000000000000000008152600401610ca79061495b565b60405180910390fd5b6004600083815260200190815260200160002060009054906101000a900473ffffffffffffffffffffffffffffffffffffffff169050919050565b60178054610cf890614d92565b80601f0160208091040260200160405190810160405280929190818152602001828054610d2490614d92565b8015610d715780601f10610d4657610100808354040283529160200191610d71565b820191906000526020600020905b815481529060010190602001808311610d5457829003601f168201915b505050505081565b6000610d84826115fd565b90508073ffffffffffffffffffffffffffffffffffffffff168373ffffffffffffffffffffffffffffffffffffffff161415610df5576040517f08c379a0000000000000000000000000000000000000000000000000000000008152600401610dec906149db565b60405180910390fd5b8073ffffffffffffffffffffffffffffffffffffffff16610e1461288a565b73ffffffffffffffffffffffffffffffffffffffff161480610e435750610e4281610e3d61288a565b612586565b5b610e82576040517f08c379a0000000000000000000000000000000000000000000000000000000008152600401610e79906148db565b60405180910390fd5b610e8c83836128fe565b505050565b6000610e9b61288a565b73ffffffffffffffffffffffffffffffffffffffff16610eb961187b565b73ffffffffffffffffffffffffffffffffffffffff1614610f0f576040517f08c379a0000000000000000000000000000000000000000000000000000000008152600401610f069061497b565b60405180910390fd5b47905090565b600d5481565b6000600880549050905090565b600f5481565b610f3f610f3961288a565b826129b7565b610f7e576040517f08c379a0000000000000000000000000000000000000000000000000000000008152600401610f75906149fb565b60405180910390fd5b610f89838383612a95565b505050565b610f9661288a565b73ffffffffffffffffffffffffffffffffffffffff16610fb461187b565b73ffffffffffffffffffffffffffffffffffffffff161461100a576040517f08c379a00000000000000000000000000000000000000000000000000000000081526004016110019061497b565b60405180910390fd5b80601190805190602001906110209291906137e4565b5050565b61102c61288a565b73ffffffffffffffffffffffffffffffffffffffff1661104a61187b565b73ffffffffffffffffffffffffffffffffffffffff16146110a0576040517f08c379a00000000000000000000000000000000000000000000000000000000081526004016110979061497b565b60405180910390fd5b6000601454116110af57600080fd5b80601660006101000a81548160ff02191690831515021790555050565b6110d461288a565b73ffffffffffffffffffffffffffffffffffffffff166110f261187b565b73ffffffffffffffffffffffffffffffffffffffff1614611148576040517f08c379a000000000000000000000000000000000000000000000000000000000815260040161113f9061497b565b60405180910390fd5b8060108190555050565b600061115d836116af565b821061119e576040517f08c379a0000000000000000000000000000000000000000000000000000000008152600401611195906147db565b60405180910390fd5b600660008473ffffffffffffffffffffffffffffffffffffffff1673ffffffffffffffffffffffffffffffffffffffff168152602001908152602001600020600083815260200190815260200160002054905092915050565b6111ff61288a565b73ffffffffffffffffffffffffffffffffffffffff1661121d61187b565b73ffffffffffffffffffffffffffffffffffffffff1614611273576040517f08c379a000000000000000000000000000000000000000000000000000000000815260040161126a9061497b565b60405180910390fd5b600061127d61187b565b73ffffffffffffffffffffffffffffffffffffffff16476040516112a09061474c565b60006040518083038185875af1925050503d80600081146112dd576040519150601f19603f3d011682016040523d82523d6000602084013e6112e2565b606091505b50509050806112f057600080fd5b50565b61130e8383836040518060200160405280600081525061220f565b505050565b60606000611320836116af565b905060008167ffffffffffffffff811115611364577f4e487b7100000000000000000000000000000000000000000000000000000000600052604160045260246000fd5b6040519080825280602002602001820160405280156113925781602001602082028036833780820191505090505b50905060005b82811015611402576113aa8582611152565b8282815181106113e3577f4e487b7100000000000000000000000000000000000000000000000000000000600052603260045260246000fd5b60200260200101818152505080806113fa90614dc4565b915050611398565b508092505050919050565b61141561288a565b73ffffffffffffffffffffffffffffffffffffffff1661143361187b565b73ffffffffffffffffffffffffffffffffffffffff1614611489576040517f08c379a00000000000000000000000000000000000000000000000000000000081526004016114809061497b565b60405180910390fd5b80600d8190555050565b600061149d610f1b565b82106114de576040517f08c379a00000000000000000000000000000000000000000000000000000000081526004016114d590614a1b565b60405180910390fd5b60088281548110611518577f4e487b7100000000000000000000000000000000000000000000000000000000600052603260045260246000fd5b90600052602060002001549050919050565b601260019054906101000a900460ff1681565b61154561288a565b73ffffffffffffffffffffffffffffffffffffffff1661156361187b565b73ffffffffffffffffffffffffffffffffffffffff16146115b9576040517f08c379a00000000000000000000000000000000000000000000000000000000081526004016115b09061497b565b60405180910390fd5b80600b90805190602001906115cf9291906137e4565b5050565b601260009054906101000a900460ff1681565b6000601660009054906101000a900460ff16905090565b6000806002600084815260200190815260200160002060009054906101000a900473ffffffffffffffffffffffffffffffffffffffff169050600073ffffffffffffffffffffffffffffffffffffffff168173ffffffffffffffffffffffffffffffffffffffff1614156116a6576040517f08c379a000000000000000000000000000000000000000000000000000000000815260040161169d9061491b565b60405180910390fd5b80915050919050565b60008073ffffffffffffffffffffffffffffffffffffffff168273ffffffffffffffffffffffffffffffffffffffff161415611720576040517f08c379a0000000000000000000000000000000000000000000000000000000008152600401611717906148fb565b60405180910390fd5b600360008373ffffffffffffffffffffffffffffffffffffffff1673ffffffffffffffffffffffffffffffffffffffff168152602001908152602001600020549050919050565b61176f61288a565b73ffffffffffffffffffffffffffffffffffffffff1661178d61187b565b73ffffffffffffffffffffffffffffffffffffffff16146117e3576040517f08c379a00000000000000000000000000000000000000000000000000000000081526004016117da9061497b565b60405180910390fd5b6117ed6000612cf1565b565b6117f761288a565b73ffffffffffffffffffffffffffffffffffffffff1661181561187b565b73ffffffffffffffffffffffffffffffffffffffff161461186b576040517f08c379a00000000000000000000000000000000000000000000000000000000081526004016118629061497b565b60405180910390fd5b80600f8190555050565b60145481565b6000600a60009054906101000a900473ffffffffffffffffffffffffffffffffffffffff16905090565b60105481565b6060600180546118ba90614d92565b80601f01602080910402602001604051908101604052809291908181526020018280546118e690614d92565b80156119335780601f1061190857610100808354040283529160200191611933565b820191906000526020600020905b81548152906001019060200180831161191657829003601f168201915b5050505050905090565b6000611947610f1b565b90506000601260009054906101000a900460ff161561196557600080fd5b6000831161197257600080fd5b61197a61187b565b73ffffffffffffffffffffffffffffffffffffffff163373ffffffffffffffffffffffffffffffffffffffff1614156119d6578260105410156119bc57600080fd5b82601060008282546119ce9190614ca8565b925050819055505b6119de61187b565b73ffffffffffffffffffffffffffffffffffffffff163373ffffffffffffffffffffffffffffffffffffffff1614611b9957601660009054906101000a900460ff1615611a2a57600080fd5b6000611a35336116af565b9050600f548482611a469190614bc7565b1115611a5182612db7565b604051602001611a6191906146f0565b60405160208183030381529060405290611ab1576040517f08c379a0000000000000000000000000000000000000000000000000000000008152600401611aa891906147b9565b60405180910390fd5b50601054600e54611ac29190614ca8565b8484611ace9190614bc7565b1115611b0f576040517f08c379a0000000000000000000000000000000000000000000000000000000008152600401611b0690614a7b565b60405180910390fd5b83600d54611b1d9190614c4e565b915081341015611b2c83612db7565b611b3534612db7565b604051602001611b46929190614712565b60405160208183030381529060405290611b96576040517f08c379a0000000000000000000000000000000000000000000000000000000008152600401611b8d91906147b9565b60405180910390fd5b50505b6000600190505b838111611bcf57611bbc338285611bb79190614bc7565b612f64565b8080611bc790614dc4565b915050611ba0565b50505050565b611bdd61288a565b73ffffffffffffffffffffffffffffffffffffffff168273ffffffffffffffffffffffffffffffffffffffff161415611c4b576040517f08c379a0000000000000000000000000000000000000000000000000000000008152600401611c429061487b565b60405180910390fd5b8060056000611c5861288a565b73ffffffffffffffffffffffffffffffffffffffff1673ffffffffffffffffffffffffffffffffffffffff16815260200190815260200160002060008473ffffffffffffffffffffffffffffffffffffffff1673ffffffffffffffffffffffffffffffffffffffff16815260200190815260200160002060006101000a81548160ff0219169083151502179055508173ffffffffffffffffffffffffffffffffffffffff16611d0561288a565b73ffffffffffffffffffffffffffffffffffffffff167f17307eab39ab6107e8899845ad3d59bd9653f200f220920489ca2b5937696c3183604051611d4a919061479e565b60405180910390a35050565b601260009054906101000a900460ff1615611da6576040517f08c379a0000000000000000000000000000000000000000000000000000000008152600401611d9d90614a3b565b60405180910390fd5b601660009054906101000a900460ff16611dbf57600080fd5b80604051602001611dd09190614691565b604051602081830303815290604052805190602001206011604051602001611df891906146d9565b6040516020818303038152906040528051906020012014611e4e576040517f08c379a0000000000000000000000000000000000000000000000000000000008152600401611e459061489b565b60405180910390fd5b611e5661187b565b73ffffffffffffffffffffffffffffffffffffffff163373ffffffffffffffffffffffffffffffffffffffff161415611e8e57600080fd5b6000611e98610f1b565b9050600080611ea6336116af565b9050600f548582611eb79190614bc7565b1115611ec282612db7565b604051602001611ed291906146f0565b60405160208183030381529060405290611f22576040517f08c379a0000000000000000000000000000000000000000000000000000000008152600401611f1991906147b9565b60405180910390fd5b50601054600e54611f339190614ca8565b8584611f3f9190614bc7565b1115611f80576040517f08c379a0000000000000000000000000000000000000000000000000000000008152600401611f7790614a7b565b60405180910390fd5b600085601454611f909190614ca8565b1015611f9b57600080fd5b6013548582611faa9190614bc7565b1115611feb576040517f08c379a0000000000000000000000000000000000000000000000000000000008152600401611fe290614a5b565b60405180910390fd5b84601554611ff99190614c4e565b91508134101561200883612db7565b61201134612db7565b604051602001612022929190614712565b60405160208183030381529060405290612072576040517f08c379a000000000000000000000000000000000000000000000000000000000815260040161206991906147b9565b60405180910390fd5b5084601460008282546120859190614ca8565b925050819055506000600190505b8581116120c2576120af3382866120aa9190614bc7565b612f64565b80806120ba90614dc4565b915050612093565b505050505050565b6120d261288a565b73ffffffffffffffffffffffffffffffffffffffff166120f061187b565b73ffffffffffffffffffffffffffffffffffffffff1614612146576040517f08c379a000000000000000000000000000000000000000000000000000000000815260040161213d9061497b565b60405180910390fd5b6001601260016101000a81548160ff021916908315150217905550565b61216b61288a565b73ffffffffffffffffffffffffffffffffffffffff1661218961187b565b73ffffffffffffffffffffffffffffffffffffffff16146121df576040517f08c379a00000000000000000000000000000000000000000000000000000000081526004016121d69061497b565b60405180910390fd5b60006121e9610f1b565b905080600e546121f99190614ca8565b821061220457600080fd5b816014819055505050565b61222061221a61288a565b836129b7565b61225f576040517f08c379a0000000000000000000000000000000000000000000000000000000008152600401612256906149fb565b60405180910390fd5b61226b84848484612f82565b50505050565b600c805461227e90614d92565b80601f01602080910402602001604051908101604052809291908181526020018280546122aa90614d92565b80156122f75780601f106122cc576101008083540402835291602001916122f7565b820191906000526020600020905b8154815290600101906020018083116122da57829003601f168201915b505050505081565b606061230a82612892565b612349576040517f08c379a0000000000000000000000000000000000000000000000000000000008152600401612340906149bb565b60405180910390fd5b60001515601260019054906101000a900460ff16151514156123f7576017805461237290614d92565b80601f016020809104026020016040519081016040528092919081815260200182805461239e90614d92565b80156123eb5780601f106123c0576101008083540402835291602001916123eb565b820191906000526020600020905b8154815290600101906020018083116123ce57829003601f168201915b50505050509050612453565b6000612401612fde565b90506000815111612421576040518060200160405280600081525061244f565b8061242b84612db7565b600c60405160200161243f939291906146a8565b6040516020818303038152906040525b9150505b919050565b60135481565b61246661288a565b73ffffffffffffffffffffffffffffffffffffffff1661248461187b565b73ffffffffffffffffffffffffffffffffffffffff16146124da576040517f08c379a00000000000000000000000000000000000000000000000000000000081526004016124d19061497b565b60405180910390fd5b8060158190555050565b600e5481565b6124f261288a565b73ffffffffffffffffffffffffffffffffffffffff1661251061187b565b73ffffffffffffffffffffffffffffffffffffffff1614612566576040517f08c379a000000000000000000000000000000000000000000000000000000000815260040161255d9061497b565b60405180910390fd5b80600c908051906020019061257c9291906137e4565b5050565b60155481565b6000600560008473ffffffffffffffffffffffffffffffffffffffff1673ffffffffffffffffffffffffffffffffffffffff16815260200190815260200160002060008373ffffffffffffffffffffffffffffffffffffffff1673ffffffffffffffffffffffffffffffffffffffff16815260200190815260200160002060009054906101000a900460ff16905092915050565b61262261288a565b73ffffffffffffffffffffffffffffffffffffffff1661264061187b565b73ffffffffffffffffffffffffffffffffffffffff1614612696576040517f08c379a000000000000000000000000000000000000000000000000000000000815260040161268d9061497b565b60405180910390fd5b80601790805190602001906126ac9291906137e4565b5050565b6126b861288a565b73ffffffffffffffffffffffffffffffffffffffff166126d661187b565b73ffffffffffffffffffffffffffffffffffffffff161461272c576040517f08c379a00000000000000000000000000000000000000000000000000000000081526004016127239061497b565b60405180910390fd5b600073ffffffffffffffffffffffffffffffffffffffff168173ffffffffffffffffffffffffffffffffffffffff16141561279c576040517f08c379a00000000000000000000000000000000000000000000000000000000081526004016127939061481b565b60405180910390fd5b6127a581612cf1565b50565b60007f80ac58cd000000000000000000000000000000000000000000000000000000007bffffffffffffffffffffffffffffffffffffffffffffffffffffffff1916827bffffffffffffffffffffffffffffffffffffffffffffffffffffffff1916148061287357507f5b5e139f000000000000000000000000000000000000000000000000000000007bffffffffffffffffffffffffffffffffffffffffffffffffffffffff1916827bffffffffffffffffffffffffffffffffffffffffffffffffffffffff1916145b80612883575061288282613070565b5b9050919050565b600033905090565b60008073ffffffffffffffffffffffffffffffffffffffff166002600084815260200190815260200160002060009054906101000a900473ffffffffffffffffffffffffffffffffffffffff1673ffffffffffffffffffffffffffffffffffffffff1614159050919050565b816004600083815260200190815260200160002060006101000a81548173ffffffffffffffffffffffffffffffffffffffff021916908373ffffffffffffffffffffffffffffffffffffffff160217905550808273ffffffffffffffffffffffffffffffffffffffff16612971836115fd565b73ffffffffffffffffffffffffffffffffffffffff167f8c5be1e5ebec7d5bd14f71427d1e84f3dd0314c0f7b2291e5b200ac8c7c3b92560405160405180910390a45050565b60006129c282612892565b612a01576040517f08c379a00000000000000000000000000000000000000000000000000000000081526004016129f8906148bb565b60405180910390fd5b6000612a0c836115fd565b90508073ffffffffffffffffffffffffffffffffffffffff168473ffffffffffffffffffffffffffffffffffffffff161480612a7b57508373ffffffffffffffffffffffffffffffffffffffff16612a6384610c66565b73ffffffffffffffffffffffffffffffffffffffff16145b80612a8c5750612a8b8185612586565b5b91505092915050565b8273ffffffffffffffffffffffffffffffffffffffff16612ab5826115fd565b73ffffffffffffffffffffffffffffffffffffffff1614612b0b576040517f08c379a0000000000000000000000000000000000000000000000000000000008152600401612b029061499b565b60405180910390fd5b600073ffffffffffffffffffffffffffffffffffffffff168273ffffffffffffffffffffffffffffffffffffffff161415612b7b576040517f08c379a0000000000000000000000000000000000000000000000000000000008152600401612b729061485b565b60405180910390fd5b612b868383836130da565b612b916000826128fe565b6001600360008573ffffffffffffffffffffffffffffffffffffffff1673ffffffffffffffffffffffffffffffffffffffff1681526020019081526020016000206000828254612be19190614ca8565b925050819055506001600360008473ffffffffffffffffffffffffffffffffffffffff1673ffffffffffffffffffffffffffffffffffffffff1681526020019081526020016000206000828254612c389190614bc7565b92505081905550816002600083815260200190815260200160002060006101000a81548173ffffffffffffffffffffffffffffffffffffffff021916908373ffffffffffffffffffffffffffffffffffffffff160217905550808273ffffffffffffffffffffffffffffffffffffffff168473ffffffffffffffffffffffffffffffffffffffff167fddf252ad1be2c89b69c2b068fc378daa952ba7f163c4a11628f55a4df523b3ef60405160405180910390a4505050565b6000600a60009054906101000a900473ffffffffffffffffffffffffffffffffffffffff16905081600a60006101000a81548173ffffffffffffffffffffffffffffffffffffffff021916908373ffffffffffffffffffffffffffffffffffffffff1602179055508173ffffffffffffffffffffffffffffffffffffffff168173ffffffffffffffffffffffffffffffffffffffff167f8be0079c531659141344cd1fd0a4f28419497f9722a3daafe3b4186f6b6457e060405160405180910390a35050565b60606000821415612dff576040518060400160405280600181526020017f30000000000000000000000000000000000000000000000000000000000000008152509050612f5f565b600082905060005b60008214612e31578080612e1a90614dc4565b915050600a82612e2a9190614c1d565b9150612e07565b60008167ffffffffffffffff811115612e73577f4e487b7100000000000000000000000000000000000000000000000000000000600052604160045260246000fd5b6040519080825280601f01601f191660200182016040528015612ea55781602001600182028036833780820191505090505b5090505b60008514612f5857600182612ebe9190614ca8565b9150600a85612ecd9190614e0d565b6030612ed99190614bc7565b60f81b818381518110612f15577f4e487b7100000000000000000000000000000000000000000000000000000000600052603260045260246000fd5b60200101907effffffffffffffffffffffffffffffffffffffffffffffffffffffffffffff1916908160001a905350600a85612f519190614c1d565b9450612ea9565b8093505050505b919050565b612f7e8282604051806020016040528060008152506131ee565b5050565b612f8d848484612a95565b612f9984848484613249565b612fd8576040517f08c379a0000000000000000000000000000000000000000000000000000000008152600401612fcf906147fb565b60405180910390fd5b50505050565b6060600b8054612fed90614d92565b80601f016020809104026020016040519081016040528092919081815260200182805461301990614d92565b80156130665780601f1061303b57610100808354040283529160200191613066565b820191906000526020600020905b81548152906001019060200180831161304957829003601f168201915b5050505050905090565b60007f01ffc9a7000000000000000000000000000000000000000000000000000000007bffffffffffffffffffffffffffffffffffffffffffffffffffffffff1916827bffffffffffffffffffffffffffffffffffffffffffffffffffffffff1916149050919050565b6130e5838383613286565b600073ffffffffffffffffffffffffffffffffffffffff168373ffffffffffffffffffffffffffffffffffffffff161415613128576131238161328b565b613167565b8173ffffffffffffffffffffffffffffffffffffffff168373ffffffffffffffffffffffffffffffffffffffff16146131665761316583826132d4565b5b5b600073ffffffffffffffffffffffffffffffffffffffff168273ffffffffffffffffffffffffffffffffffffffff1614156131aa576131a581613441565b6131e9565b8273ffffffffffffffffffffffffffffffffffffffff168273ffffffffffffffffffffffffffffffffffffffff16146131e8576131e78282613584565b5b5b505050565b6131f88383613603565b6132056000848484613249565b613244576040517f08c379a000000000000000000000000000000000000000000000000000000000815260040161323b906147fb565b60405180910390fd5b505050565b600061326a8473ffffffffffffffffffffffffffffffffffffffff166137d1565b156132745761327d565b6001905061327e565b5b949350505050565b505050565b6008805490506009600083815260200190815260200160002081905550600881908060018154018082558091505060019003906000526020600020016000909190919091505550565b600060016132e1846116af565b6132eb9190614ca8565b90506000600760008481526020019081526020016000205490508181146133d0576000600660008673ffffffffffffffffffffffffffffffffffffffff1673ffffffffffffffffffffffffffffffffffffffff168152602001908152602001600020600084815260200190815260200160002054905080600660008773ffffffffffffffffffffffffffffffffffffffff1673ffffffffffffffffffffffffffffffffffffffff168152602001908152602001600020600084815260200190815260200160002081905550816007600083815260200190815260200160002081905550505b6007600084815260200190815260200160002060009055600660008573ffffffffffffffffffffffffffffffffffffffff1673ffffffffffffffffffffffffffffffffffffffff16815260200190815260200160002060008381526020019081526020016000206000905550505050565b600060016008805490506134559190614ca8565b90506000600960008481526020019081526020016000205490506000600883815481106134ab577f4e487b7100000000000000000000000000000000000000000000000000000000600052603260045260246000fd5b9060005260206000200154905080600883815481106134f3577f4e487b7100000000000000000000000000000000000000000000000000000000600052603260045260246000fd5b906000526020600020018190555081600960008381526020019081526020016000208190555060096000858152602001908152602001600020600090556008805480613568577f4e487b7100000000000000000000000000000000000000000000000000000000600052603160045260246000fd5b6001900381819060005260206000200160009055905550505050565b600061358f836116af565b905081600660008573ffffffffffffffffffffffffffffffffffffffff1673ffffffffffffffffffffffffffffffffffffffff168152602001908152602001600020600083815260200190815260200160002081905550806007600084815260200190815260200160002081905550505050565b600073ffffffffffffffffffffffffffffffffffffffff168273ffffffffffffffffffffffffffffffffffffffff161415613673576040517f08c379a000000000000000000000000000000000000000000000000000000000815260040161366a9061493b565b60405180910390fd5b61367c81612892565b156136bc576040517f08c379a00000000000000000000000000000000000000000000000000000000081526004016136b39061483b565b60405180910390fd5b6136c8600083836130da565b6001600360008473ffffffffffffffffffffffffffffffffffffffff1673ffffffffffffffffffffffffffffffffffffffff16815260200190815260200160002060008282546137189190614bc7565b92505081905550816002600083815260200190815260200160002060006101000a81548173ffffffffffffffffffffffffffffffffffffffff021916908373ffffffffffffffffffffffffffffffffffffffff160217905550808273ffffffffffffffffffffffffffffffffffffffff16600073ffffffffffffffffffffffffffffffffffffffff167fddf252ad1be2c89b69c2b068fc378daa952ba7f163c4a11628f55a4df523b3ef60405160405180910390a45050565b600080823b905060008111915050919050565b8280546137f090614d92565b90600052602060002090601f0160209004810192826138125760008555613859565b82601f1061382b57805160ff1916838001178555613859565b82800160010185558215613859579182015b8281111561385857825182559160200191906001019061383d565b5b509050613866919061386a565b5090565b5b8082111561388357600081600090555060010161386b565b5090565b600061389a61389584614ae7565b614ab6565b9050828152602081018484840111156138b257600080fd5b6138bd848285614d50565b509392505050565b60006138d86138d384614b17565b614ab6565b9050828152602081018484840111156138f057600080fd5b6138fb848285614d50565b509392505050565b60008135905061391281614f0b565b92915050565b60008135905061392781614f22565b92915050565b60008135905061393c81614f39565b92915050565b600082601f83011261395357600080fd5b8135613963848260208601613887565b91505092915050565b600082601f83011261397d57600080fd5b813561398d8482602086016138c5565b91505092915050565b6000813590506139a581614f50565b92915050565b6000602082840312156139bd57600080fd5b60006139cb84828501613903565b91505092915050565b600080604083850312156139e757600080fd5b60006139f585828601613903565b9250506020613a0685828601613903565b9150509250929050565b600080600060608486031215613a2557600080fd5b6000613a3386828701613903565b9350506020613a4486828701613903565b9250506040613a5586828701613996565b9150509250925092565b60008060008060808587031215613a7557600080fd5b6000613a8387828801613903565b9450506020613a9487828801613903565b9350506040613aa587828801613996565b925050606085013567ffffffffffffffff811115613ac257600080fd5b613ace87828801613942565b91505092959194509250565b60008060408385031215613aed57600080fd5b6000613afb85828601613903565b9250506020613b0c85828601613918565b9150509250929050565b60008060408385031215613b2957600080fd5b6000613b3785828601613903565b9250506020613b4885828601613996565b9150509250929050565b600060208284031215613b6457600080fd5b6000613b7284828501613918565b91505092915050565b600060208284031215613b8d57600080fd5b6000613b9b8482850161392d565b91505092915050565b600060208284031215613bb657600080fd5b600082013567ffffffffffffffff811115613bd057600080fd5b613bdc8482850161396c565b91505092915050565b600060208284031215613bf757600080fd5b6000613c0584828501613996565b91505092915050565b60008060408385031215613c2157600080fd5b6000613c2f85828601613996565b925050602083013567ffffffffffffffff811115613c4c57600080fd5b613c588582860161396c565b9150509250929050565b6000613c6e8383614673565b60208301905092915050565b613c8381614cdc565b82525050565b6000613c9482614b6c565b613c9e8185614b8f565b9350613ca983614b47565b8060005b83811015613cda578151613cc18882613c62565b9750613ccc83614b82565b925050600181019050613cad565b5085935050505092915050565b613cf081614cee565b82525050565b6000613d0182614b77565b613d0b8185614bab565b9350613d1b818560208601614d5f565b613d2481614efa565b840191505092915050565b6000613d3a82614b77565b613d448185614bbc565b9350613d54818560208601614d5f565b80840191505092915050565b60008154613d6d81614d92565b613d778186614bbc565b94506001821660008114613d925760018114613da357613dd6565b60ff19831686528186019350613dd6565b613dac85614b57565b60005b83811015613dce57815481890152600182019150602081019050613daf565b838801955050505b50505092915050565b6000613dec602b83614bab565b91507f455243373231456e756d657261626c653a206f776e657220696e646578206f7560008301527f74206f6620626f756e64730000000000000000000000000000000000000000006020830152604082019050919050565b6000613e52603283614bab565b91507f4552433732313a207472616e7366657220746f206e6f6e20455243373231526560008301527f63656976657220696d706c656d656e74657200000000000000000000000000006020830152604082019050919050565b6000613eb8602683614bab565b91507f4f776e61626c653a206e6577206f776e657220697320746865207a65726f206160008301527f64647265737300000000000000000000000000000000000000000000000000006020830152604082019050919050565b6000613f1e601c83614bab565b91507f4552433732313a20746f6b656e20616c7265616479206d696e746564000000006000830152602082019050919050565b6000613f5e602483614bab565b91507f4552433732313a207472616e7366657220746f20746865207a65726f2061646460008301527f72657373000000000000000000000000000000000000000000000000000000006020830152604082019050919050565b6000613fc4601983614bab565b91507f4552433732313a20617070726f766520746f2063616c6c6572000000000000006000830152602082019050919050565b6000614004601183614bab565b91507f496e76616c6964207369676e61747572650000000000000000000000000000006000830152602082019050919050565b6000614044600c83614bbc565b91507f4c696d697420746f6b656e2000000000000000000000000000000000000000006000830152600c82019050919050565b6000614084602c83614bab565b91507f4552433732313a206f70657261746f7220717565727920666f72206e6f6e657860008301527f697374656e7420746f6b656e00000000000000000000000000000000000000006020830152604082019050919050565b60006140ea600183614bbc565b91507f20000000000000000000000000000000000000000000000000000000000000006000830152600182019050919050565b600061412a601183614bbc565b91507f496e636f727265637420616d6f756e74200000000000000000000000000000006000830152601182019050919050565b600061416a603883614bab565b91507f4552433732313a20617070726f76652063616c6c6572206973206e6f74206f7760008301527f6e6572206e6f7220617070726f76656420666f7220616c6c00000000000000006020830152604082019050919050565b60006141d0602a83614bab565b91507f4552433732313a2062616c616e636520717565727920666f7220746865207a6560008301527f726f2061646472657373000000000000000000000000000000000000000000006020830152604082019050919050565b6000614236602983614bab565b91507f4552433732313a206f776e657220717565727920666f72206e6f6e657869737460008301527f656e7420746f6b656e00000000000000000000000000000000000000000000006020830152604082019050919050565b600061429c602083614bab565b91507f4552433732313a206d696e7420746f20746865207a65726f20616464726573736000830152602082019050919050565b60006142dc602c83614bab565b91507f4552433732313a20617070726f76656420717565727920666f72206e6f6e657860008301527f697374656e7420746f6b656e00000000000000000000000000000000000000006020830152604082019050919050565b6000614342602083614bab565b91507f4f776e61626c653a2063616c6c6572206973206e6f7420746865206f776e65726000830152602082019050919050565b6000614382602983614bab565b91507f4552433732313a207472616e73666572206f6620746f6b656e2074686174206960008301527f73206e6f74206f776e00000000000000000000000000000000000000000000006020830152604082019050919050565b60006143e8602f83614bab565b91507f4552433732314d657461646174613a2055524920717565727920666f72206e6f60008301527f6e6578697374656e7420746f6b656e00000000000000000000000000000000006020830152604082019050919050565b600061444e602183614bab565b91507f4552433732313a20617070726f76616c20746f2063757272656e74206f776e6560008301527f72000000000000000000000000000000000000000000000000000000000000006020830152604082019050919050565b60006144b4600083614ba0565b9150600082019050919050565b60006144ce603183614bab565b91507f4552433732313a207472616e736665722063616c6c6572206973206e6f74206f60008301527f776e6572206e6f7220617070726f7665640000000000000000000000000000006020830152604082019050919050565b6000614534602c83614bab565b91507f455243373231456e756d657261626c653a20676c6f62616c20696e646578206f60008301527f7574206f6620626f756e647300000000000000000000000000000000000000006020830152604082019050919050565b600061459a601283614bab565b91507f436f6e74726163742069732070617573656400000000000000000000000000006000830152602082019050919050565b60006145da602883614bab565b91507f4d6178696d756d207065722077616c6c6574206973203320647572696e67207760008301527f686974656c6973740000000000000000000000000000000000000000000000006020830152604082019050919050565b6000614640600a83614bab565b91507f4d617820537570706c79000000000000000000000000000000000000000000006000830152602082019050919050565b61467c81614d46565b82525050565b61468b81614d46565b82525050565b600061469d8284613d2f565b915081905092915050565b60006146b48286613d2f565b91506146c08285613d2f565b91506146cc8284613d60565b9150819050949350505050565b60006146e58284613d60565b915081905092915050565b60006146fb82614037565b91506147078284613d2f565b915081905092915050565b600061471d8261411d565b91506147298285613d2f565b9150614734826140dd565b91506147408284613d2f565b91508190509392505050565b6000614757826144a7565b9150819050919050565b60006020820190506147766000830184613c7a565b92915050565b600060208201905081810360008301526147968184613c89565b905092915050565b60006020820190506147b36000830184613ce7565b92915050565b600060208201905081810360008301526147d38184613cf6565b905092915050565b600060208201905081810360008301526147f481613ddf565b9050919050565b6000602082019050818103600083015261481481613e45565b9050919050565b6000602082019050818103600083015261483481613eab565b9050919050565b6000602082019050818103600083015261485481613f11565b9050919050565b6000602082019050818103600083015261487481613f51565b9050919050565b6000602082019050818103600083015261489481613fb7565b9050919050565b600060208201905081810360008301526148b481613ff7565b9050919050565b600060208201905081810360008301526148d481614077565b9050919050565b600060208201905081810360008301526148f48161415d565b9050919050565b60006020820190508181036000830152614914816141c3565b9050919050565b6000602082019050818103600083015261493481614229565b9050919050565b600060208201905081810360008301526149548161428f565b9050919050565b60006020820190508181036000830152614974816142cf565b9050919050565b6000602082019050818103600083015261499481614335565b9050919050565b600060208201905081810360008301526149b481614375565b9050919050565b600060208201905081810360008301526149d4816143db565b9050919050565b600060208201905081810360008301526149f481614441565b9050919050565b60006020820190508181036000830152614a14816144c1565b9050919050565b60006020820190508181036000830152614a3481614527565b9050919050565b60006020820190508181036000830152614a548161458d565b9050919050565b60006020820190508181036000830152614a74816145cd565b9050919050565b60006020820190508181036000830152614a9481614633565b9050919050565b6000602082019050614ab06000830184614682565b92915050565b6000604051905081810181811067ffffffffffffffff82111715614add57614adc614ecb565b5b8060405250919050565b600067ffffffffffffffff821115614b0257614b01614ecb565b5b601f19601f8301169050602081019050919050565b600067ffffffffffffffff821115614b3257614b31614ecb565b5b601f19601f8301169050602081019050919050565b6000819050602082019050919050565b60008190508160005260206000209050919050565b600081519050919050565b600081519050919050565b6000602082019050919050565b600082825260208201905092915050565b600081905092915050565b600082825260208201905092915050565b600081905092915050565b6000614bd282614d46565b9150614bdd83614d46565b9250827fffffffffffffffffffffffffffffffffffffffffffffffffffffffffffffffff03821115614c1257614c11614e3e565b5b828201905092915050565b6000614c2882614d46565b9150614c3383614d46565b925082614c4357614c42614e6d565b5b828204905092915050565b6000614c5982614d46565b9150614c6483614d46565b9250817fffffffffffffffffffffffffffffffffffffffffffffffffffffffffffffffff0483118215151615614c9d57614c9c614e3e565b5b828202905092915050565b6000614cb382614d46565b9150614cbe83614d46565b925082821015614cd157614cd0614e3e565b5b828203905092915050565b6000614ce782614d26565b9050919050565b60008115159050919050565b60007fffffffff0000000000000000000000000000000000000000000000000000000082169050919050565b600073ffffffffffffffffffffffffffffffffffffffff82169050919050565b6000819050919050565b82818337600083830152505050565b60005b83811015614d7d578082015181840152602081019050614d62565b83811115614d8c576000848401525b50505050565b60006002820490506001821680614daa57607f821691505b60208210811415614dbe57614dbd614e9c565b5b50919050565b6000614dcf82614d46565b91507fffffffffffffffffffffffffffffffffffffffffffffffffffffffffffffffff821415614e0257614e01614e3e565b5b600182019050919050565b6000614e1882614d46565b9150614e2383614d46565b925082614e3357614e32614e6d565b5b828206905092915050565b7f4e487b7100000000000000000000000000000000000000000000000000000000600052601160045260246000fd5b7f4e487b7100000000000000000000000000000000000000000000000000000000600052601260045260246000fd5b7f4e487b7100000000000000000000000000000000000000000000000000000000600052602260045260246000fd5b7f4e487b7100000000000000000000000000000000000000000000000000000000600052604160045260246000fd5b6000601f19601f8301169050919050565b614f1481614cdc565b8114614f1f57600080fd5b50565b614f2b81614cee565b8114614f3657600080fd5b50565b614f4281614cfa565b8114614f4d57600080fd5b50565b614f5981614d46565b8114614f6457600080fd5b5056fea2646970667358221220bf3cfd5c049acc678bbad4aaeff24deaccc28667cb704fb76053b146a8a7615564736f6c63430008000033",
  "immutableReferences": {},
  "source": "// File: contracts/EdisonNft.sol\n\npragma solidity >=0.7.0 <0.9.0;\n\nimport \"./ERC721Enumerable.sol\";\nimport \"./Ownable.sol\";\n\ncontract EdisonNft is ERC721Enumerable, Ownable {\n    using Strings for uint256;\n\n    string baseURI;\n    string public baseExtension = \".json\";\n    //\n    uint256 public cost = 90000000000000;\n    //\n    uint256 public maxSupply = 1098;\n    //\n    uint256 public maxMintAmount = 4;\n    uint256 public reservedForTeam = 10;\n    //\n    string private signature;\n\n    bool public paused = false;\n    bool public revealed = false;\n\n    //Mint\n    uint256 public whitelistMintAmount = 3;\n    //\n    uint256 public whitelistReserved = 1000;\n    uint256 public whitelistCost = 90000000000000;\n\n    bool private whitelistedSale = true;\n    string public notRevealedUri;\n\n    string _name = \"By Edison NFT Day2\";\n    string _symbol = \"symbol\";\n\n    constructor(string memory _initBaseURI,string memory _initNotRevealedUri) ERC721(_name, _symbol) {\n        setBaseURI(_initBaseURI);\n        setNotRevealedURI(_initNotRevealedUri);\n    }\n\n    // internal\n    function _baseURI() internal view virtual override returns (string memory) {\n        return baseURI;\n    }\n    //\n    function presaleMint(uint256 _mintAmount, string memory _signature) public payable {\n        require(!paused, \"Contract is paused\");\n        require(whitelistedSale);\n        require(keccak256(abi.encodePacked((signature))) == keccak256(abi.encodePacked((_signature))), \"Invalid signature\");\n        require(msg.sender != owner());\n\n        uint256 supply = totalSupply();\n        uint256 totalAmount;\n\n        uint256 tokenCount = balanceOf(msg.sender);\n        require(tokenCount + _mintAmount <= maxMintAmount, string(abi.encodePacked(\"Limit token \", tokenCount.toString())));\n        require(supply + _mintAmount <= maxSupply - reservedForTeam,\"Max Supply\");\n\n        // Whitelist\n        require(whitelistReserved - _mintAmount >= 0);\n        require(tokenCount + _mintAmount <= whitelistMintAmount, \"Maximum per wallet is 3 during whitelist\");\n        totalAmount = whitelistCost * _mintAmount;\n\n        require(msg.value >= totalAmount,string(abi.encodePacked(\"Incorrect amount \",totalAmount.toString(),\" \",msg.value.toString())));\n        whitelistReserved -= _mintAmount;\n        for (uint256 i = 1; i <= _mintAmount; i++) {\n            _safeMint(msg.sender, supply + i);\n        }\n    }\n\n    // \n    function mint(uint256 _mintAmount) public payable {\n        uint256 supply = totalSupply();\n        uint256 totalAmount;\n        require(!paused);\n        require(_mintAmount > 0);\n        // Owner\n        if (msg.sender == owner()) {\n            require(reservedForTeam >= _mintAmount);\n            reservedForTeam -= _mintAmount;\n        }\n        if (msg.sender != owner()) {\n            require(!whitelistedSale);\n            uint256 tokenCount = balanceOf(msg.sender);\n            require(tokenCount + _mintAmount <= maxMintAmount,string(abi.encodePacked(\"Limit token \", tokenCount.toString())));\n            require(supply + _mintAmount <= maxSupply - reservedForTeam,\"Max Supply\");\n            totalAmount = cost * _mintAmount;\n            require(msg.value >= totalAmount,string(abi.encodePacked(\"Incorrect amount \",totalAmount.toString(),\" \",msg.value.toString())));\n        }\n        for (uint256 i = 1; i <= _mintAmount; i++) {\n            _safeMint(msg.sender, supply + i);\n        }\n    }\n    function walletOfOwner(address _owner)public view returns (uint256[] memory){\n        uint256 ownerTokenCount = balanceOf(_owner);\n        uint256[] memory tokenIds = new uint256[](ownerTokenCount);\n        for (uint256 i; i < ownerTokenCount; i++) {\n            tokenIds[i] = tokenOfOwnerByIndex(_owner, i);\n        }\n        return tokenIds;\n    }\n\n    function tokenURI(uint256 tokenId)public view virtual override returns (string memory){\n        require(_exists(tokenId),\"ERC721Metadata: URI query for nonexistent token\");\n        if (revealed == false) {\n            return notRevealedUri;\n        }\n        string memory currentBaseURI = _baseURI();\n        return\n        bytes(currentBaseURI).length > 0 ? string(abi.encodePacked(currentBaseURI,tokenId.toString(),baseExtension)) : \"\";\n    }\n\n    //only owner\n    function reveal() public onlyOwner {\n        revealed = true;\n    }\n\n    function setReserved(uint256 _reserved) public onlyOwner {\n        reservedForTeam = _reserved;\n    }\n\n    function setCost(uint256 _newCost) public onlyOwner {\n        cost = _newCost;\n    }\n\n    function setWhitelistCost(uint256 _newCost) public onlyOwner {\n        whitelistCost = _newCost;\n    }\n\n    function setmaxMintAmount(uint256 _newmaxMintAmount) public onlyOwner {\n        maxMintAmount = _newmaxMintAmount;\n    }\n\n    function setNotRevealedURI(string memory _notRevealedURI) public onlyOwner {\n        notRevealedUri = _notRevealedURI;\n    }\n\n    function setBaseURI(string memory _newBaseURI) public onlyOwner {\n        baseURI = _newBaseURI;\n    }\n\n    function setBaseExtension(string memory _newBaseExtension)public onlyOwner{\n        baseExtension = _newBaseExtension;\n    }\n\n    function pause(bool _state) public onlyOwner {\n        paused = _state;\n    }\n\n    function whitelistSale(bool _state) public onlyOwner {\n        require(whitelistReserved > 0);\n        whitelistedSale = _state;\n    }\n\n    function setSignature(string memory _signature) public onlyOwner {\n        signature = _signature;\n    }\n\n    function setWhitelistReserved(uint256 _count) public onlyOwner {\n        uint256 totalSupply = totalSupply();\n        require(_count < maxSupply - totalSupply);\n        whitelistReserved = _count;\n    }\n    // \n    function withdraw() public payable onlyOwner {\n        (bool os, ) = payable(owner()).call{value: address(this).balance}(\"\");\n        require(os);\n    }\n\n    function getBalance() public view onlyOwner returns (uint256) {\n        return address(this).balance;\n    }\n\n    function isWhitelisted() public view returns (bool) {\n        return whitelistedSale;\n    }\n}\n",
  "sourcePath": "/Users/edison/Desktop/NFT/Looter-SmartContract/contracts/Lotter.sol",
  "compiler": {
    "name": "solc",
    "version": "0.8.0+commit.c7dfd78e.Emscripten.clang"
  },
  "schemaVersion": "3.4.4",
  "updatedAt": "2022-09-02T03:16:20.374Z",
  "devdoc": {
    "kind": "dev",
    "methods": {
      "approve(address,uint256)": {
        "details": "See {IERC721-approve}."
      },
      "balanceOf(address)": {
        "details": "See {IERC721-balanceOf}."
      },
      "getApproved(uint256)": {
        "details": "See {IERC721-getApproved}."
      },
      "isApprovedForAll(address,address)": {
        "details": "See {IERC721-isApprovedForAll}."
      },
      "name()": {
        "details": "See {IERC721Metadata-name}."
      },
      "owner()": {
        "details": "Returns the address of the current owner."
      },
      "ownerOf(uint256)": {
        "details": "See {IERC721-ownerOf}."
      },
      "renounceOwnership()": {
        "details": "Leaves the contract without owner. It will not be possible to call `onlyOwner` functions anymore. Can only be called by the current owner. NOTE: Renouncing ownership will leave the contract without an owner, thereby removing any functionality that is only available to the owner."
      },
      "safeTransferFrom(address,address,uint256)": {
        "details": "See {IERC721-safeTransferFrom}."
      },
      "safeTransferFrom(address,address,uint256,bytes)": {
        "details": "See {IERC721-safeTransferFrom}."
      },
      "setApprovalForAll(address,bool)": {
        "details": "See {IERC721-setApprovalForAll}."
      },
      "supportsInterface(bytes4)": {
        "details": "See {IERC165-supportsInterface}."
      },
      "symbol()": {
        "details": "See {IERC721Metadata-symbol}."
      },
      "tokenByIndex(uint256)": {
        "details": "See {IERC721Enumerable-tokenByIndex}."
      },
      "tokenOfOwnerByIndex(address,uint256)": {
        "details": "See {IERC721Enumerable-tokenOfOwnerByIndex}."
      },
      "tokenURI(uint256)": {
        "details": "Returns the Uniform Resource Identifier (URI) for `tokenId` token."
      },
      "totalSupply()": {
        "details": "See {IERC721Enumerable-totalSupply}."
      },
      "transferFrom(address,address,uint256)": {
        "details": "See {IERC721-transferFrom}."
      },
      "transferOwnership(address)": {
        "details": "Transfers ownership of the contract to a new account (`newOwner`). Can only be called by the current owner."
      }
    },
    "version": 1
  },
  "userdoc": {
    "kind": "user",
    "methods": {},
    "version": 1
  }
}